{
  "_format": "hh-sol-artifact-1",
  "contractName": "Switch",
  "sourceName": "contracts/Switch.sol",
  "abi": [
    {
      "inputs": [
        {
          "internalType": "address",
          "name": "_recipient",
          "type": "address"
        }
      ],
      "stateMutability": "payable",
      "type": "constructor"
    },
    {
      "inputs": [],
      "name": "ping",
      "outputs": [],
      "stateMutability": "nonpayable",
      "type": "function"
    },
    {
      "inputs": [],
      "name": "withdraw",
      "outputs": [],
      "stateMutability": "nonpayable",
      "type": "function"
    }
  ],
  "bytecode": "0x608060405260405161059c38038061059c83398181016040528101906100259190610116565b806000806101000a81548173ffffffffffffffffffffffffffffffffffffffff021916908373ffffffffffffffffffffffffffffffffffffffff16021790555033600160006101000a81548173ffffffffffffffffffffffffffffffffffffffff021916908373ffffffffffffffffffffffffffffffffffffffff1602179055504260028190555050610143565b600080fd5b600073ffffffffffffffffffffffffffffffffffffffff82169050919050565b60006100e3826100b8565b9050919050565b6100f3816100d8565b81146100fe57600080fd5b50565b600081519050610110816100ea565b92915050565b60006020828403121561012c5761012b6100b3565b5b600061013a84828501610101565b91505092915050565b61044a806101526000396000f3fe608060405234801561001057600080fd5b50600436106100365760003560e01c80633ccfd60b1461003b5780635c36b18614610045575b600080fd5b61004361004f565b005b61004d610173565b005b6301dfe200600254426100629190610245565b10156100a3576040517f08c379a000000000000000000000000000000000000000000000000000000000815260040161009a906102d6565b60405180910390fd5b60008060009054906101000a900473ffffffffffffffffffffffffffffffffffffffff1673ffffffffffffffffffffffffffffffffffffffff16476040516100ea90610327565b60006040518083038185875af1925050503d8060008114610127576040519150601f19603f3d011682016040523d82523d6000602084013e61012c565b606091505b5050905080610170576040517f08c379a000000000000000000000000000000000000000000000000000000000815260040161016790610388565b60405180910390fd5b50565b600160009054906101000a900473ffffffffffffffffffffffffffffffffffffffff1673ffffffffffffffffffffffffffffffffffffffff163373ffffffffffffffffffffffffffffffffffffffff1614610203576040517f08c379a00000000000000000000000000000000000000000000000000000000081526004016101fa906103f4565b60405180910390fd5b42600281905550565b6000819050919050565b7f4e487b7100000000000000000000000000000000000000000000000000000000600052601160045260246000fd5b60006102508261020c565b915061025b8361020c565b925082820390508181111561027357610272610216565b5b92915050565b600082825260208201905092915050565b7f497473206e6f742074696d652079657421000000000000000000000000000000600082015250565b60006102c0601183610279565b91506102cb8261028a565b602082019050919050565b600060208201905081810360008301526102ef816102b3565b9050919050565b600081905092915050565b50565b60006103116000836102f6565b915061031c82610301565b600082019050919050565b600061033282610304565b9150819050919050565b7f4661696c656420746f2073656e64204574686572000000000000000000000000600082015250565b6000610372601483610279565b915061037d8261033c565b602082019050919050565b600060208201905081810360008301526103a181610365565b9050919050565b7f48657920796f75206172656e277420746865206f776e65722100000000000000600082015250565b60006103de601983610279565b91506103e9826103a8565b602082019050919050565b6000602082019050818103600083015261040d816103d1565b905091905056fea264697066735822122097b22921d71afb635e4b99568233ef7295354cc9a59d086aea4a72031ac5844d64736f6c63430008110033",
  "linkReferences": {},
  "deployedLinkReferences": {}
}